{
  "contractName": "StudentStorage",
  "abi": [
    {
      "inputs": [
        {
          "internalType": "string",
          "name": "_name",
          "type": "string"
        },
        {
          "internalType": "uint256",
          "name": "_age",
          "type": "uint256"
        }
      ],
      "name": "setStudent",
      "outputs": [],
      "stateMutability": "nonpayable",
      "type": "function"
    },
    {
      "inputs": [],
      "name": "getStudent",
      "outputs": [
        {
          "internalType": "string",
          "name": "",
          "type": "string"
        },
        {
          "internalType": "uint256",
          "name": "",
          "type": "uint256"
        }
      ],
      "stateMutability": "view",
      "type": "function",
      "constant": true
    }
  ],
  "bytecode": "0x608060405234801561001057600080fd5b5061070e806100206000396000f3fe608060405234801561001057600080fd5b5060043610610053576000357c0100000000000000000000000000000000000000000000000000000000900480639b4d52dd14610058578063b439548d14610074575b600080fd5b610072600480360381019061006d91906102da565b610093565b005b61007c6100ae565b60405161008a9291906103c4565b60405180910390f35b81600090816100a29190610606565b50806001819055505050565b60606000806001548180546100c290610423565b80601f01602080910402602001604051908101604052809291908181526020018280546100ee90610423565b801561013b5780601f106101105761010080835404028352916020019161013b565b820191906000526020600020905b81548152906001019060200180831161011e57829003601f168201915b50505050509150915091509091565b6000604051905090565b600080fd5b600080fd5b600080fd5b600080fd5b6000601f19601f8301169050919050565b7f4e487b7100000000000000000000000000000000000000000000000000000000600052604160045260246000fd5b6101b182610168565b810181811067ffffffffffffffff821117156101d0576101cf610179565b5b80604052505050565b60006101e361014a565b90506101ef82826101a8565b919050565b600067ffffffffffffffff82111561020f5761020e610179565b5b61021882610168565b9050602081019050919050565b82818337600083830152505050565b6000610247610242846101f4565b6101d9565b90508281526020810184848401111561026357610262610163565b5b61026e848285610225565b509392505050565b600082601f83011261028b5761028a61015e565b5b813561029b848260208601610234565b91505092915050565b6000819050919050565b6102b7816102a4565b81146102c257600080fd5b50565b6000813590506102d4816102ae565b92915050565b600080604083850312156102f1576102f0610154565b5b600083013567ffffffffffffffff81111561030f5761030e610159565b5b61031b85828601610276565b925050602061032c858286016102c5565b9150509250929050565b600081519050919050565b600082825260208201905092915050565b60005b83811015610370578082015181840152602081019050610355565b60008484015250505050565b600061038782610336565b6103918185610341565b93506103a1818560208601610352565b6103aa81610168565b840191505092915050565b6103be816102a4565b82525050565b600060408201905081810360008301526103de818561037c565b90506103ed60208301846103b5565b9392505050565b7f4e487b7100000000000000000000000000000000000000000000000000000000600052602260045260246000fd5b6000600282049050600182168061043b57607f821691505b60208210810361044e5761044d6103f4565b5b50919050565b60008190508160005260206000209050919050565b60006020601f8301049050919050565b60008160020a8302905092915050565b6000600883026104b97fffffffffffffffffffffffffffffffffffffffffffffffffffffffffffffffff82610479565b6104c38683610479565b95508019841693508086168417925050509392505050565b6000819050919050565b60006105006104fb6104f6846102a4565b6104db565b6102a4565b9050919050565b6000819050919050565b61051a836104e5565b61052e61052682610507565b848454610489565b825550505050565b600090565b610543610536565b61054e818484610511565b505050565b5b818110156105725761056760008261053b565b600181019050610554565b5050565b601f8211156105b75761058881610454565b61059184610469565b810160208510156105a0578190505b6105b46105ac85610469565b830182610553565b50505b505050565b60008160020a8304905092915050565b60006105dd600019846008026105bc565b1980831691505092915050565b60006105f683836105cc565b9150826002028217905092915050565b61060f82610336565b67ffffffffffffffff81111561062857610627610179565b5b6106328254610423565b61063d828285610576565b600060209050601f831160018114610670576000841561065e578287015190505b61066885826105ea565b8655506106d0565b601f19841661067e86610454565b60005b828110156106a657848901518255600182019150602085019450602081019050610681565b868310156106c357848901516106bf601f8916826105cc565b8355505b6001600288020188555050505b50505050505056fea2646970667358221220f1138f8eda04ed70a120cfb4c65bb23f6c3531bb643854dbb64ad7a470b26c9764736f6c63430008150033",
  "immutableReferences": {},
  "source": "// SPDX-License-Identifier: MIT\npragma solidity >=0.4.16 <0.9.0;\n\ncontract StudentStorage {\n    string name;\n    uint age;\n\n    function setStudent(string memory _name, uint _age) public {\n        name = _name;\n        age = _age;\n    }\n\n    // view ()  pure ()\n    function getStudent() public view returns (string memory, uint) {\n        return (name, age);\n    }\n}\n",
  "sourcePath": "/Users/apple/Desktop/TEST/web3/solidity/contracts/StudentStorage.sol",
  "compiler": {
    "name": "solc",
    "version": "0.8.21+commit.d9974bed.Emscripten.clang"
  },
  "schemaVersion": "3.4.16",
  "updatedAt": "2023-12-30T10:01:52.995Z",
  "networkType": "ethereum",
  "devdoc": {
    "kind": "dev",
    "methods": {},
    "version": 1
  },
  "userdoc": {
    "kind": "user",
    "methods": {},
    "version": 1
  }
}