{
  "contractName": "StudentListStorage",
  "abi": [
    {
      "inputs": [
        {
          "internalType": "uint256",
          "name": "",
          "type": "uint256"
        }
      ],
      "name": "StudentList",
      "outputs": [
        {
          "internalType": "uint256",
          "name": "id",
          "type": "uint256"
        },
        {
          "internalType": "string",
          "name": "name",
          "type": "string"
        },
        {
          "internalType": "uint256",
          "name": "age",
          "type": "uint256"
        }
      ],
      "stateMutability": "view",
      "type": "function",
      "constant": true
    },
    {
      "inputs": [
        {
          "internalType": "string",
          "name": "_str",
          "type": "string"
        }
      ],
      "name": "testLog",
      "outputs": [
        {
          "internalType": "string",
          "name": "",
          "type": "string"
        }
      ],
      "stateMutability": "pure",
      "type": "function",
      "constant": true
    },
    {
      "inputs": [],
      "name": "testList",
      "outputs": [
        {
          "internalType": "uint256[]",
          "name": "",
          "type": "uint256[]"
        }
      ],
      "stateMutability": "view",
      "type": "function",
      "constant": true
    },
    {
      "inputs": [
        {
          "internalType": "string",
          "name": "_name",
          "type": "string"
        },
        {
          "internalType": "uint256",
          "name": "_age",
          "type": "uint256"
        }
      ],
      "name": "addStudentList",
      "outputs": [
        {
          "internalType": "uint256",
          "name": "",
          "type": "uint256"
        }
      ],
      "stateMutability": "nonpayable",
      "type": "function"
    },
    {
      "inputs": [],
      "name": "getStudentList",
      "outputs": [
        {
          "components": [
            {
              "internalType": "uint256",
              "name": "id",
              "type": "uint256"
            },
            {
              "internalType": "string",
              "name": "name",
              "type": "string"
            },
            {
              "internalType": "uint256",
              "name": "age",
              "type": "uint256"
            }
          ],
          "internalType": "struct StudentListStorage.Student[]",
          "name": "",
          "type": "tuple[]"
        }
      ],
      "stateMutability": "view",
      "type": "function",
      "constant": true
    }
  ],
  "bytecode": "0x60806040526040518060600160405280600160ff168152602001600260ff168152602001600360ff16815250600190600361003b92919061004e565b5034801561004857600080fd5b506100bd565b82805482825590600052602060002090810192821561008f579160200282015b8281111561008e578251829060ff1690559160200191906001019061006e565b5b50905061009c91906100a0565b5090565b5b808211156100b95760008160009055506001016100a1565b5090565b610d54806100cc6000396000f3fe608060405234801561001057600080fd5b5060043610610074576000357c0100000000000000000000000000000000000000000000000000000000900480631dcc5976146100795780636b378b601461009757806395bbc64e146100c7578063af81ceab146100f9578063eac70a9114610129575b600080fd5b610081610147565b60405161008e91906105c9565b60405180910390f35b6100b160048036038101906100ac9190610760565b61024c565b6040516100be91906107cb565b60405180910390f35b6100e160048036038101906100dc91906107e6565b6102ea565b6040516100f09392919061085d565b60405180910390f35b610113600480360381019061010e919061089b565b6103ac565b60405161012091906108e4565b60405180910390f35b6101316103b6565b60405161013e91906109b5565b60405180910390f35b60606000805480602002602001604051908101604052809291908181526020016000905b828210156102435783829060005260206000209060030201604051806060016040529081600082015481526020016001820180546101a890610a06565b80601f01602080910402602001604051908101604052809291908181526020018280546101d490610a06565b80156102215780601f106101f657610100808354040283529160200191610221565b820191906000526020600020905b81548152906001019060200180831161020457829003601f168201915b505050505081526020016002820154815250508152602001906001019061016b565b50505050905090565b600080600080549050905060006001826102669190610a66565b9050600060405180606001604052808381526020018781526020018681525090806001815401808255809150506001900390600052602060002090600302016000909190919091506000820151816000015560208201518160010190816102cd9190610c4c565b506040820151816002015550506000805490509250505092915050565b600081815481106102fa57600080fd5b906000526020600020906003020160009150905080600001549080600101805461032390610a06565b80601f016020809104026020016040519081016040528092919081815260200182805461034f90610a06565b801561039c5780601f106103715761010080835404028352916020019161039c565b820191906000526020600020905b81548152906001019060200180831161037f57829003601f168201915b5050505050908060020154905083565b6060819050919050565b6060600180548060200260200160405190810160405280929190818152602001828054801561040457602002820191906000526020600020905b8154815260200190600101908083116103f0575b5050505050905090565b600081519050919050565b600082825260208201905092915050565b6000819050602082019050919050565b6000819050919050565b61044d8161043a565b82525050565b600081519050919050565b600082825260208201905092915050565b60005b8381101561048d578082015181840152602081019050610472565b60008484015250505050565b6000601f19601f8301169050919050565b60006104b582610453565b6104bf818561045e565b93506104cf81856020860161046f565b6104d881610499565b840191505092915050565b60006060830160008301516104fb6000860182610444565b506020830151848203602086015261051382826104aa565b91505060408301516105286040860182610444565b508091505092915050565b600061053f83836104e3565b905092915050565b6000602082019050919050565b600061055f8261040e565b6105698185610419565b93508360208202850161057b8561042a565b8060005b858110156105b757848403895281516105988582610533565b94506105a383610547565b925060208a0199505060018101905061057f565b50829750879550505050505092915050565b600060208201905081810360008301526105e38184610554565b905092915050565b6000604051905090565b600080fd5b600080fd5b600080fd5b600080fd5b7f4e487b7100000000000000000000000000000000000000000000000000000000600052604160045260246000fd5b61064182610499565b810181811067ffffffffffffffff821117156106605761065f610609565b5b80604052505050565b60006106736105eb565b905061067f8282610638565b919050565b600067ffffffffffffffff82111561069f5761069e610609565b5b6106a882610499565b9050602081019050919050565b82818337600083830152505050565b60006106d76106d284610684565b610669565b9050828152602081018484840111156106f3576106f2610604565b5b6106fe8482856106b5565b509392505050565b600082601f83011261071b5761071a6105ff565b5b813561072b8482602086016106c4565b91505092915050565b61073d8161043a565b811461074857600080fd5b50565b60008135905061075a81610734565b92915050565b60008060408385031215610777576107766105f5565b5b600083013567ffffffffffffffff811115610795576107946105fa565b5b6107a185828601610706565b92505060206107b28582860161074b565b9150509250929050565b6107c58161043a565b82525050565b60006020820190506107e060008301846107bc565b92915050565b6000602082840312156107fc576107fb6105f5565b5b600061080a8482850161074b565b91505092915050565b600082825260208201905092915050565b600061082f82610453565b6108398185610813565b935061084981856020860161046f565b61085281610499565b840191505092915050565b600060608201905061087260008301866107bc565b81810360208301526108848185610824565b905061089360408301846107bc565b949350505050565b6000602082840312156108b1576108b06105f5565b5b600082013567ffffffffffffffff8111156108cf576108ce6105fa565b5b6108db84828501610706565b91505092915050565b600060208201905081810360008301526108fe8184610824565b905092915050565b600081519050919050565b600082825260208201905092915050565b6000819050602082019050919050565b600061093e8383610444565b60208301905092915050565b6000602082019050919050565b600061096282610906565b61096c8185610911565b935061097783610922565b8060005b838110156109a857815161098f8882610932565b975061099a8361094a565b92505060018101905061097b565b5085935050505092915050565b600060208201905081810360008301526109cf8184610957565b905092915050565b7f4e487b7100000000000000000000000000000000000000000000000000000000600052602260045260246000fd5b60006002820490506001821680610a1e57607f821691505b602082108103610a3157610a306109d7565b5b50919050565b7f4e487b7100000000000000000000000000000000000000000000000000000000600052601160045260246000fd5b6000610a718261043a565b9150610a7c8361043a565b9250828201905080821115610a9457610a93610a37565b5b92915050565b60008190508160005260206000209050919050565b60006020601f8301049050919050565b60008160020a8302905092915050565b600060088302610aff7fffffffffffffffffffffffffffffffffffffffffffffffffffffffffffffffff82610abf565b610b098683610abf565b95508019841693508086168417925050509392505050565b6000819050919050565b6000610b46610b41610b3c8461043a565b610b21565b61043a565b9050919050565b6000819050919050565b610b6083610b2b565b610b74610b6c82610b4d565b848454610acf565b825550505050565b600090565b610b89610b7c565b610b94818484610b57565b505050565b5b81811015610bb857610bad600082610b81565b600181019050610b9a565b5050565b601f821115610bfd57610bce81610a9a565b610bd784610aaf565b81016020851015610be6578190505b610bfa610bf285610aaf565b830182610b99565b50505b505050565b60008160020a8304905092915050565b6000610c2360001984600802610c02565b1980831691505092915050565b6000610c3c8383610c12565b9150826002028217905092915050565b610c5582610453565b67ffffffffffffffff811115610c6e57610c6d610609565b5b610c788254610a06565b610c83828285610bbc565b600060209050601f831160018114610cb65760008415610ca4578287015190505b610cae8582610c30565b865550610d16565b601f198416610cc486610a9a565b60005b82811015610cec57848901518255600182019150602085019450602081019050610cc7565b86831015610d095784890151610d05601f891682610c12565b8355505b6001600288020188555050505b50505050505056fea2646970667358221220d3975577c8013ffb4cf80ad964369addefee6ecbca426a41b1b71af7b5f76e2464736f6c63430008150033",
  "immutableReferences": {},
  "source": "// SPDX-License-Identifier: MIT\npragma solidity >=0.4.16 <0.9.0;\n\ncontract StudentListStorage {\n    struct Student {\n        uint id;\n        string name;\n        uint age;\n    }\n    // \n    Student[] public StudentList; //getter()\n\n    uint[] list = [1, 2, 3]; //  x\n\n    function testLog(string memory _str) public pure returns (string memory) {\n        return _str;\n    }\n\n    function testList() public view returns (uint[] memory) {\n        return list;\n    }\n\n    function addStudentList(\n        string memory _name,\n        uint _age\n    ) public returns (uint) {\n        uint count = StudentList.length;\n        uint index = count + 1;\n        StudentList.push(Student(index, _name, _age));\n        return StudentList.length;\n    }\n\n    function getStudentList() public view returns (Student[] memory) {\n        // Student[] memory list = StudentList;\n        return StudentList;\n    }\n}\n",
  "sourcePath": "/Users/apple/Desktop/TEST/web3/solidity/contracts/StudentListStorage.sol",
  "compiler": {
    "name": "solc",
    "version": "0.8.21+commit.d9974bed.Emscripten.clang"
  },
  "schemaVersion": "3.4.16",
  "updatedAt": "2023-12-30T10:01:53.138Z",
  "networkType": "ethereum",
  "devdoc": {
    "kind": "dev",
    "methods": {},
    "version": 1
  },
  "userdoc": {
    "kind": "user",
    "methods": {},
    "version": 1
  }
}